:020000000C945E
:100002003E000C9400000C9400000C9400000C9430
:1000120000000C9400000C9400000C9400000C945E
:1000220000000C9400000C9400000C9400000C944E
:1000320000000C946A000C9400000C9400000C94D4
:1000420000000C9400000C9400000C9400000C942E
:1000520000001027E80364000A00010000100001FC
:100062001000010000000101000100000100020077
:1000720066000600040068000000F894EE27ECBB5E
:10008200F1E0F5BFE5BF8DE0A2E0BB27ED938A95D5
:10009200E9F780E098E0A0E6ED930197E9F7EEE654
:1000A200F0E085919591009761F0A591B591059049
:1000B2001590BF01F00105900D920197E1F7FB0148
:1000C200F0CFEFE5EDBFE8E0EEBFC0E6D2E00C9482
:1000D2008D00EA93FA93EFB7EA931A930A931BB14E
:1000E2000CB1E12FEC7189F4E62D6394F0E0E05A53
:1000F200FD4F0083E8E0E61509F466248394E8E006
:10010200E81519F48824689420F809911991E99165
:10011200EFBFF991E9911895EFEFEABBE0E0EBBB95
:10012200E1E0E7BBE0E0E8BBEFE1E4BBE0E0E5BB38
:10013200E1BBE2BBE3BFE2BFECBFEFBDEEBDEDBD95
:10014200ECBDE7BDE6BDEBBDEABDE9BDE8BDE2BD84
:10015200E5BDE4BDE3BDE9BFE5BFE4BFEBB9E8E956
:10016200EAB9E6E8E0BDE0E0E0BDE7E6E9B9E0E8EB
:10017200E8B9E0E0E0BFE6B9EDB9E6BF7894B2D005
:100182002497E0E0E883E983EA83EB83E0E0F0E0B0
:10019200FA93EA93A0E0B0E05CD0A0ECB0E062D0C9
:1001A200A8EEB3E00E948F018DD0A8EEB3E00E94CA
:1001B2008F012496E5CFFFCFA89A8BE18A95F1F7BC
:1001C200A8988BE18A95F1F70895AA93E881E03027
:1001D20031F0AB98AC98AA98A998EFE305C0AB9A16
:1001E200AC9AAA98A998EEE3EBBBE6DF21960895B4
:1001F200BA93AA93AA98A998AB98AC98E881E06CB4
:10020200EBBB39C00E947F01AA81BB81A034E0E030
:10021200BE0728F4AB9AAC980A811B8107C0AB9841
:10022200AC9AEA81FB81E054F0408F01F801E0646E
:10023200EF77F0708F010BBBBFDF40C00E947F01E0
:10024200EA81FB81E86BEF7BF0708F010BBBB4DFBF
:1002520035C0BA93AA93AA81BB81D4DFA881B981A0
:10026200EDDF2EC0BA93AA93AA9AA998E881EBBBB4
:1002720085E08A95F1F7A0DF22960895BA93AA93B2
:100282001A930A93E0E0F0E00E9486010038E0E071
:100292001E0734F4A0E0B0E0E5DF0F5F1F4FF6CF9A
:1002A200E0E4F0E00E9486010038E0E01E0734F44A
:1002B200A0E0B0E0D7DF0F5F1F4FF6CF19810881B2
:1002C200249608951A930A9300E010E00830E0E0C3
:1002D2001E072CF4D801D2DF0F5F1F4FF7CF099111
:1002E20019910895EFEFEABBAB9AAC9AC09AA1E0DC
:1002F2006CDFE8DFA0E0B0E07BDF0895BA93AA9359
:100302001A930A93AA98A9980895FA93EA93AC814A
:10031200BD810E942A0100E010E00895109639F094
:1003220080EA9FE00197F1F7A8951197C9F7089520
:00000001FF
